:020000040800F2
:1000000078970020850200081B91000853520008D1
:10001000199100080D1C000861B5000800000000DF
:10002000000000000000000000000000DF98000851
:10003000C1200008000000002D9400089D9C0008CD
:100040009F0200089F0200089F0200089F0200080C
:100050009F0200089F0200089F0200089F020008FC
:100060009F0200089F0200089F0200089F020008EC
:100070009F0200089F0200089F0200089F020008DC
:100080009F0200089F0200089F0200089F020008CC
:100090009F0200089F0200089F0200089F020008BC
:1000A0009F0200089F0200089F0200089F020008AC
:1000B0009F0200089F0200089F0200089F0200089C
:1000C0009F0200089F0200089F0200089F0200088C
:1000D0009F02000821AC00089F0200089F02000850
:1000E0009F0200089F0200089F0200089F0200086C
:1000F0009F0200089F0200089F0200089F0200085C
:100100009F0200089F0200089F0200089F0200084B
:100110009F0200089F0200089F0200089F0200083B
:100120009F0200089F0200089F0200089F0200082B
:100130009F0200089F0200089F0200089F0200081B
:100140009F0200089F0200089F0200089F0200080B
:100150009F0200089F0200089F0200089F020008FB
:100160009F0200089F0200089F0200089F020008EB
:100170009F0200089F0200089F0200080000000084
:100180009F0200089F0200089F0200089F020008CB
:100190009F0200089F0200089F0200089F020008BB
:1001A0009F0200089F0200089F02000800F002F86A
:1001B00000F058F80AA090E8000C82448344AAF1A9
:1001C0000107DA4501D100F04DF8AFF2090EBAE8A7
:1001D0000F0013F0010F18BFFB1A43F0010318477B
:1001E000EC1701000C180100103A24BF78C878C140
:1001F000FAD8520724BF30C830C144BF04680C602D
:10020000704700000023002400250026103A28BF74
:1002100078C1FBD8520728BF30C148BF0B60704778
:1002200066290CF0AB86642900F0BE80782900F0C6
:10023000F780732900F0AD85002070471FB50CF0E2
:1002400098FE00F001FE0400002000210CF09CF953
:10025000401C6060002000210CF080F9E0601FBDB0
:1002600010B510BD00F040FF1146FFF7E7FF0BF09F
:10027000D7FC00F06CFF03B4FFF7F2FF03BC0BF0F8
:1002800072FC00000948804709480047FEE7FEE786
:10029000FEE7FEE7FEE7FEE7FEE7FEE7FEE7FEE736
:1002A00004480549054A064B70470000A19C000818
:1002B000AD01000878910020789700207893002005
:1002C00078930020704700000FB4044910B503AACA
:1002D000029800F063FD10BC5DF814FB7C00002068
:1002E0000FB41CB5074B06AA7B44694600900598DD
:1002F00000F025FD0020694600F034FD1CBC5DF8CF
:1003000014FB0000790A000070B504468569006896
:10031000C10601D5302600E02026C00707D070BDF9
:10032000D4E9012130469047206A401C20626D1EAE
:10033000F6D570BD70B5044685690078C00707D151
:1003400070BDD4E9012120209047206A401C206222
:100350006D1EF6D570BD70B50C460546012A05D058
:100360002878800600D5EA69002302E0012305E031
:100370005B1C934202D2E05C0028F9D1A869E61820
:10038000C01AA861286A184428622846FFF7BCFFF3
:1003900004E0D5E9012114F8010B9047B442F8D3E9
:1003A0002846FFF7C7FF70BD2DE9F041064600243F
:1003B00010687529314616A510D0AFF300800028CB
:1003C00002DA404213A507E031688A0701D512A579
:1003D00002E0490704D511A5012401E0AFF3008034
:1003E00000210A2206F1240709E0B0FBF2FCB0FB71
:1003F000F2F302FB1C00303078541846491C0028E8
:10040000F3D123462A463046BDE8F04100F029BA30
:10041000000000002D0000002B0000002000000064
:1004200070B504460D4621461068AFF30080218860
:10043000090502D50F4A7A4402E00E4A7A440E3288
:10044000002104F1240305E000F00F060009965D89
:100450005E54491C0028F7D120780023000704D5FA
:10046000702D02D009B1022311322046BDE8704040
:1004700000F0F7B9481401002DE9F05F8946044601
:100480004FF0000ADFF824B1FB44C0F820A020465A
:10049000E168884700287DD0252806D0D4E90121CD
:1004A0009047206A401C2062F1E700255F46204605
:1004B000E16888472028064607DB312E05D2B819A7
:1004C00010F8200C08B10543F1E7A80701D525F085
:1004D0000405C4F81CA00027C4F818A02A2E09D0CF
:1004E00030460BF039FB38B304EB8708303EC8F8D0
:1004F000186019E059F8041B204604EB870291614B
:10050000E1688847012F064618D1E069002820DA03
:1005100025F020051DE0D8F8180000EB800006EB60
:1005200040003038C8F818002046E1688847064681
:100530000BF012FB0028EED1012F0AD02E2E08D18D
:100540002046E16888477F1C0646022F45F02005BB
:10055000C4DBA069002803DA404245F00105A06130
:10056000E80701D025F01005A6B1A6F14100192831
:1005700002D8203645F400654A46314620462560BB
:100580004D46FFF74DFE60B1012807D0ED1D25F067
:10059000070000E007E000F1080978E705F1040929
:1005A00075E730467AE7206ABDE8F09F1E14010027
:1005B00070B5064600F046F90468054630460A2242
:1005C000002100F0FDFB2C6070BD30B505460B46E8
:1005D0002A4613F8014B12F8010B08B1A042F8D0DB
:1005E0001CB1002802D06D1CF1E7284630BD40EA5E
:1005F0000103024630B59B0710D14FF0013400E0F3
:1006000008C208C91D1B9D4315EAC41FF8D013F08A
:10061000FF0102F8011B0DD01B0AF8E711F8013B9E
:10062000002B02F8013B05D011F8013B002B02F82A
:10063000013BF3D130BD10B5431C02E010F8011BA3
:1006400071B18107FAD14FF0013202C88C1A8C4384
:1006500014EAC211F9D0C01A0A0603D0C01E10BD98
:10066000C01A10BD0A0401D0801E10BD0902FCD0C2
:10067000401E10BD40EA010370B59B072ED14FF01C
:100680000136042A2AD308C810C99D1B9D43121F96
:1006900015EAC61517D0D8B2E1B2401A50EA056182
:1006A00010D198B2A1B2401A50EA05410AD123F004
:1006B0007F4024F07F41401A50EA052102D1180EF4
:1006C000A0EB146070BDA342DBD018BA21BA8842F7
:1006D00001D9012070BD4FF0FF3070BD0AB9002074
:1006E00070BD10F8013B11F8014B63B1A3420AD170
:1006F000521E08D010F8013B11F8014B1BB1A34268
:1007000001D1521EEDD1181B70BD10B5203AC0F0BA
:100710000B80B1E81850203AA0E81850B1E8185002
:10072000A0E81850BFF4F5AF5FEA027C24BFB1E83F
:100730001850A0E8185044BF18C918C0BDE81040B0
:100740005FEA827C24BF51F8043B40F8043B08BFB9
:100750007047D20728BF31F8023B48BF11F8012B80
:1007600028BF20F8023B48BF00F8012B70474FF02C
:10077000000200B5134694469646203922BFA0E8F1
:100780000C50A0E80C50B1F12001BFF4F7AF0907FD
:1007900028BFA0E80C5048BF0CC05DF804EB8900EE
:1007A00028BF40F8042B08BF704748BF20F8022B31
:1007B00011F0804F18BF00F8012B70474FF0013C3B
:1007C00050F8042B51F8043B9A4221D1A2EB0C03C0
:1007D000934313EACC1317D150F8042B51F8043B80
:1007E0009A4215D1A2EB0C03934313EACC130BD11D
:1007F00050F8042B51F8043B9A4209D1A2EB0C03A8
:10080000934313EACC13DBD04FF00000704700BFD6
:10081000D01A01BAB1FA81F101F0180122FA01F0FF
:10082000CB40C1F12001DBB2C0B2C01A2CFA01F3F7
:10083000D11A914311EAC311E6D17047704770474E
:1008400070477047004870471491002010B5FFF7BB
:10085000F9FF006810BD10B50446FFF7F3FF046010
:1008600010BD2DE9F0470D4699469246044600F129
:1008700024080168880604D5E06921F01001216090
:1008800000E00120A84201DD471B00E00027A1692C
:100890007A1902EB0900081AA0612078C00602D478
:1008A0002046FFF731FD002608E0D4E901211AF8BF
:1008B00006009047206A401C761C20624E45F4DBFF
:1008C0002078C0060AD52046FFF71EFD06E0D4E9D1
:1008D000012130209047206A401C2062381EA7F179
:1008E0000107F4DC07E0D4E9012118F8050090477E
:1008F000206A401C2062281EA5F10105F3DC204679
:10090000FFF718FD2078000602D50220BDE8F08729
:100910000120FBE770472DE9FF4F0C461E464FF0C4
:10092000FF378BB0D2E90001DDF860800A908A467B
:10093000C1F30A5505B93D46002108464FF00000B5
:10094000BAF1000F00F4400005DA00EB80004FF42C
:10095000400101EA50004FEA9059B9F1010F00DD62
:10096000B9460A9850EA4A000ED044F61050A5F253
:10097000FF3545432F14B8F1000F1ED07542291ED4
:100980001EDDC9F100021CE0B8F1010F4FF00000BC
:1009900001D0302103E0F24305E02154401CB04275
:1009A000FBDB30460022002121540B99C1F808805E
:1009B000C1E900200FB0BDE8F08FBD1B6D1CDEE764
:1009C0004A4600DA694206A800F018FB06AB93E835
:1009D000070003AB83E8070050460A9900F0C0FB0C
:1009E0008DE80700A0F500501F3800900398002DF7
:1009F0000ADD42F21F014A460844002303A903907E
:100A0000684600F029FE09E0A0F500504A461F386C
:100A1000002303A90390684600F033FE8DE8070029
:100A20000004000C03D04FF0FF30410800E01046F6
:100A3000B8F1000F03D00022009215461EE0751E8B
:100A400005D400F005FA303262556D1EF9D5B34673
:100A50000122084302D000227F1C04E020783028C5
:100A600001D100227F1E002A099784D01DE0112D9C
:100A700007DA00F0EDF9303262556D1C50EA0102E0
:100A8000F5D1084302D00098C8B10EE00021681EDD
:100A900005E0235C625C63542254401E491C814281
:100AA000F7DBAB46A81B401E0990002004F80B00A2
:100AB0000B98099AC0F80880C0E9002B7AE7112644
:100AC0004FF0000857E72DE9F04F88460446D21D45
:100AD00022F0070191B0D1E90001CDE90A010AF045
:100AE000E6FF02460B98C00F01D02D2007E02068DA
:100AF000810701D52B2002E0202101EAC000032A52
:100B0000099001D0072A05DB03464146204600F044
:100B1000E5F90BE12078800601D5E06900E00620C8
:100B2000B8F1650F814606D0B8F1660F18D0B8F15C
:100B3000670F70D131E00020B9F1110F009001DB97
:100B4000112301E009F101030AAA01A90CA8FFF78A
:100B5000E2FEDDE90C70002609F10105834647E05D
:100B600001204B4600904FF000470AAA01A90CA8AB
:100B7000FFF7D1FEDDE90DB00C995D46002610B9F6
:100B800009F101000D18B9EB050003D4C0F1FF36DF
:100B900009F10105A5EB09002BE0B9F1010F01DA1C
:100BA0004FF001090020B9F1110F0090484601DD16
:100BB000112300E003460AAA01A90CA8FFF7ABFE27
:100BC000DDE90C704D4600268346207800070AD4E4
:100BD000AB4500DA5D4601A8012D04DD411911F88D
:100BE000011C302907D04F4502DA17F1040F04DA4F
:100BF000012082460FE06D1EEEE7002F02DCED1BA8
:100C00003E4403E0781CA84200DD7D1CB81B00F1C7
:100C1000010A4FF000472078000703D4AA4501DB02
:100C20004FF0FF3A0021B7F1004F0DF143088DF866
:100C3000431024D002202B23002F01DA7F422D23E2
:100C40000A21021EA0F1010000DC5FB197FBF1FC5C
:100C500097FBF1F201FB1C7C17460CF1300C08F8F5
:100C600001CDEEE7A8F1010003702188090501D547
:100C7000452100E06521A0F1010800F8011C099858
:100C80000FA9A1EB0807FF1D00B10120411901EBDD
:100C9000EA70A1693844081A401EA0612078C00695
:100CA00002D42046FFF730FB099828B1D4E901218E
:100CB0009047206A401C20622078C00622D520463A
:100CC000FFF722FB1EE0002E04DBB34502DD01A886
:100CD000805D00E03020D4E901219047206A401C6B
:100CE0002062761CAAF101005FEA000A0AD100F036
:100CF000ABF8C0680168405CD4E901219047206AE4
:100D0000401C2062281EA5F10105DCDC07E0D4E9C7
:100D1000012118F8010B9047206A401C2062381E00
:100D2000A7F10107F3DC2046FFF704FB032011B015
:100D300041E6000001694A1C02610878704700B56D
:100D40008FB0CDE901310021059105497944CDE904
:100D5000031011466846FFF78FFB0FB000BD00007F
:100D6000E5FFFFFF0A6802F8010B0A60704710B543
:100D7000436913B1AFF3008001E0FFF7ECFA012003
:100D800010BD127800F124010A7000224A7001227D
:100D9000EDE711684FF0FF32E9E70000074B70B54F
:100DA0000D467B44FFF7CBFF0446284600F098F938
:100DB00010B14FF0FF3070BD204670BD67AE00002F
:100DC0002DE9F04791460F4680460446002614F868
:100DD000015B2DB100F030F80068405DC007F6D12E
:100DE0002B2D02D02D2D18D0641E4A4639462046A0
:100DF00000F0B4F827B13968A14201D1C7F80080EA
:100E00004FF0020471050BD54042002803DDFFF7C7
:100E100019FD0460A007BDE8F08746F48066E4E7AA
:100E20000028F8DAFFF70EFD04606FF00040F2E7EB
:100E3000004870471491002010B500F005F8001D1F
:100E400010BD00BF45B70000004870473491002036
:100E500030B5B0F10A024FEA900E71F100034EEA8C
:100E6000817EB0EB0E0061EB91014FEA101E4EEA5D
:100E7000017E10EB0E0041EB11114FEA102E4EEAED
:100E8000016E10EB0E0041EB11214FEA104E4EEABD
:100E9000014E10EB0E0041EB1141401841F10001F1
:100EA0004FEAD00040EA41704FEAD10110EB8005D3
:100EB0004FEA810444EA907444EB01046D1944EB59
:100EC0000404521BA3414FF0000348BF0A3200D56F
:100ED00030BD401C41F1000130BD00002DE9F04162
:100EE0001F46044603260168072A01F4006004DB5C
:100EF00008B116A505E016A503E008B115A500E0A8
:100F000015A521F010002060A069C01EA0610FB1DE
:100F1000401EA0612046FFF7F7F94FB1D4E9012147
:100F200038469047206A401C2062C01C206206E0C0
:100F3000206AFAE7D4E9012115F8010B9047761EE3
:100F4000F8D22046FFF7F6F9BDE8F0814E414E0099
:100F50006E616E00494E4600696E66002DE9F05FD5
:100F6000824615468B4600270AF10104B9460078EF
:100F7000302801D09DB113E014F8010B0127782827
:100F800003D0582801D045B10AE00DB1102D07D18A
:100F9000002714F8010B102502E0082500E00A25BF
:100FA0000026B0460EE005FB080005FB06F1012710
:100FB0001FFA80F801EB1046B6F5803F00D3B94622
:100FC00014F8010B294600F0B4F80028EBDABBF165
:100FD000000F05D00FB1641E00E05446CBF800406E
:100FE000B9F1000F06D0FFF72DFC02210160C81EE9
:100FF000BDE8F09F48EA0640FAE700002DE9F04717
:10100000814616468AB0354878440DC88DE80D00F3
:1010100032487844801C03AC0DC884E80D0041F6CA
:101020009B300844372190FBF1F290FBF1F5A5F1DC
:10103000800501FB12041B3C02D56442012000E044
:101040000020DFF898A080460027FA44AAF1BE0AE3
:101050000EE0E0070AD03246684607EB470101235D
:101060000AEB810100F00DFB8DE8070064107F1C86
:10107000002CEED1194F7F44AE3F19E0E80715D0A0
:1010800007EB04100DF1180A90E80E008AE80E0034
:10109000C068F04201D1981908903246012306A990
:1010A00003A800F0EEFA03AB83E807006D10641CA0
:1010B000002DE3D14FF0010332466946B8F1000F2D
:1010C00003A802D000F0C8FA01E000F0DAFAC9E99A
:1010D0000001C9F808200AB0BDE8F0872C0901001A
:1010E000007B00F0800070477546FFF7A1FEAE461A
:1010F00005006946534620F00700854618B020B524
:10110000FFF7CEF8BDE820404FF000064FF0000793
:101110004FF000084FF0000B21F00701AC46ACE89F
:10112000C009ACE8C009ACE8C009ACE8C0098D460C
:1011300070473A2800D2303820F02002412A01D3EB
:10114000A2F13700884201D34FF0FF30704710B54D
:101150000446AFF300802046BDE81040FFF78BB88F
:101160005FEA400C08BF91F0000F4FEA8C234FEA72
:10117000C12243EA51514FEA1C5018BF00F5F0401C
:101180004FEA300018BF41F000415FEA6C5C00F0AC
:101190002980BCF1FF3F08BF40F080407047130C2E
:1011A00006BF12044FF0100C4FF0000C130E04BFDA
:1011B00012020CF1080C130F04BF12010CF1040C05
:1011C000930F04BF92000CF1020CD30F04BF520026
:1011D0000CF1010C11464FF00002A0F11F00A0EB32
:1011E0000C00704711F0004F08BF704731F000410C
:1011F0003FF4D5AF0B0C06BF09044FF0100C4FF0B5
:10120000000C0B0E04BF09020CF1080C0B0F04BFFD
:1012100009010CF1040C8B0F04BF89000CF1020CC6
:10122000CB0F04BF49000CF1010CCCF12003A0EB63
:101230000C0022FA03F302FA0CF241EA030100F176
:101240000100704720F07F4C80EA030023F07F47C5
:10125000ACEB070303F57C5300F0004003F1FF0300
:101260002DE980494FEA154B09B44FEA144325EAAA
:101270000B4E24EA03480FF2042606EB1327490815
:101280003E785FEA320203FB0667C7F5000707FBFB
:1012900006F64FEA54374FEAD64606F1020607FB38
:1012A000066CCCF1005C4FEA1C472CEA074C07FBAC
:1012B00006F40CFB06F504EB15464FEA961634BF10
:1012C00000204FF000404FEAD13706FB07FC4FEA01
:1012D0001C4C0CFB0BF7D21B03FB0CF761EB07015B
:1012E0000CFB0EF7B0EB074072EB17420CFB08F754
:1012F00034BFA2EB0742B2EB074261EB17414FEA62
:101300000C444FEA910706FB07FC4FEA1C4C0CFB10
:101310000BF7B0EBC74072EB573203FB0CF734BF4F
:10132000A2EBC742B2EBC74261EB57310CFB0EF7A1
:10133000B0EBC70072EB57720CFB08F734BFA2EB9F
:10134000C702B2EBC70261EB5771039F4FEA81619D
:1013500041EA921104EBCC044FEAD1374FEA8262A2
:1013600006FB07FC42EA90124FEA80604FEA1C4CF1
:101370000CFB0BF7D21B03FB0CF761EB07010CFB1B
:101380000EF7B0EB074072EB17420CFB08F734BFC7
:10139000A2EB0742B2EB074261EB17414FEA8C55D3
:1013A0004FEA910704EB9C2406FB07FC4FEA1C4C18
:1013B0000CFB0BF7B0EBC74072EB573203FB0CF79B
:1013C00034BFA2EBC742B2EBC74261EB57310CFB13
:1013D0000EF7B0EBC70072EB57720CFB08F734BF87
:1013E000A2EBC702B2EBC70261EB577115EB4C25BC
:1013F0004FEA816141EA92114FEA82624FEAD137A6
:1014000042EA901206FB07FC44F100044FEA8060B8
:101410004FEA1C4C0CFB0BF7D21B03FB0CF761EBE8
:1014200007010CFB0EF7B0EB074072EB17420CFB09
:1014300008F734BFA2EB0742B2EB074261EB17415A
:1014400015EB1C154FEA813141EA92414FEA823295
:1014500042EA90424FEA80304FEA0C7644F10004B1
:1014600048EA03434EEA0B484FF0000EB2EB080C7B
:1014700071EB030724BF624639464EEB0E0E4FF068
:10148000000B0018524149414BEB0B0BB2EB080C1F
:1014900071EB03077BF1000B24BF624639464EEB2C
:1014A0000E0E4FF0000B0018524149414BEB0B0B55
:1014B000B2EB080C71EB03077BF1000B24BF624613
:1014C00039464EEB0E0E51EA020718BF46F00106F0
:1014D00016EB0E7655F1000254F1000103D5BDE87C
:1014E0008901BDE80088BDE88901BDE80048B6195A
:1014F000524141EB0101A3F10103704780807F7EDF
:101500007D7C7B7A79787776767574737271717079
:101510006F6E6E6D6C6C6B6A6A696868676666652B
:101520006464636362616160605F5F5E5E5D5D5CB9
:101530005C5B5B5A5A59595858575756565555552A
:101540005454535352525251515050504F4F4F4E8A
:101550004E4D4D4D4C4C4C4B4B4B4A4A4A494949D8
:10156000484848474747474646464545454444441A
:10157000444343434342424242414141002B9C4643
:1015800030D477002BD01CB54FEA370703B44FF0A7
:1015900010004FF01001BAF1000F06D0BCF1000F9F
:1015A000DCBF40F0080040F008014FF000000FBC25
:1015B000BDE810400BF1010BBBF1010F08BF5FEA62
:1015C000170722BF12F1010211F101014FF0004192
:1015D00043F1000300F0004043EA00007047F9D3F4
:1015E0005708D0E746EA064613F1400F4FEA164681
:1015F0001FDD13F1200FDFBF16430A460021203301
:101600005B42BED0C3F1200746EA064602FA07F75E
:101610004FEA164646EA0706C3F1200722FA03F20C
:1016200001FA07F721FA03F14FF0000342EA07023B
:10163000A7E746EA020646EA06464FEA164646EAA3
:101640000106BCBF46EA0646360C4FF000034FF0D9
:1016500000024FF0000194E72DE9804C9A46934632
:1016600070B491E8380007C831EA400C48BF34EA4A
:10167000430C03D5FFF7E6FDFFF780FFF0BCBDE8A4
:10168000008C2DE9804C9A46934670B491E838005E
:1016900007C810F0804F08BF13F0804F03D100F04F
:1016A00005F8FFF76BFFF0BCBDE8008C20F07F472A
:1016B00080EA030023F07F4C07EB0C03A3F57C5377
:1016C00000F00040A3F1FE0392F0000F00F0B380A1
:1016D00095F0000F00F077802DE901494FEA1140A5
:1016E0004FEA144621EA004800FB06FC24EA0647BC
:1016F00008FB06F607FB08F800FB07F718EB06489F
:101700004CEB164C4FEA124B18EB07484FEA1546C4
:101710004CEB174022EA0B4E0BFB06FC25EA064772
:101720000EFB06F607FB0EFE0BFB07F71EEB064E45
:101730004CEB164C4FF000061EEB074E4CEB174BD4
:1017400018EB0B0840F1000018EB0E0B58EB0008EB
:1017500040F100008F1A4FF000013CBFC943661BE7
:1017600014BFB5EB040C00213CBFC943F61B4FEA84
:1017700017444EEA8E0E27EA04454FEA1C4704FB45
:1017800007622CEA074C05FB07F70CFB05F604FB88
:101790000CFC16EB074642EB174216EB0C4642EBED
:1017A0001C421BEB060658EB0202414146EA9E062C
:1017B00001D5BDE80189B619524141EB0101A3F100
:1017C0000103BDE801894FEA14454FEA114724EAB5
:1017D000054621EA074C05FB07F406FB07F70CFB5F
:1017E00006F105FB0CFC11EB074144EB17444FEAF3
:1017F000124711EB0C4144EB1C4422EA074C05FB59
:1018000007F206FB07F70CFB06F605FB0CFC16EBD4
:10181000074642EB174216EB0C4642EB1C456A1892
:1018200054F1000148BF7047B619524141EB010124
:10183000A3F10103704795F0000F37D04FEA114232
:101840004FEA144721EA024624EA074C02FB07F15B
:1018500006FB07F70CFB06F402FB0CFC14EB074439
:1018600041EB17414FEA154714EB0C4441EB1C4187
:1018700025EA074C02FB07F506FB07F70CFB06F60B
:1018800002FB0CFC16EB074645EB174516EB0C4626
:1018900045EB1C42121951F1000148BF7047B619BF
:1018A000524141EB0101A3F1010370474FEA144596
:1018B0004FEA114724EA054621EA074C05FB07F1E8
:1018C00006FB07F70CFB06F24FF0000605FB0CFCCD
:1018D00012EB074241EB174112EB0C4251EB1C415A
:1018E00048BF7047921841EB0101A3F10103704713
:1018F0004A4910B5D1F8042322F44032C1F8042338
:10190000D1F8042343681A43C1F8042301684A68E4
:1019100022F480724A6001684A68036942EA03223D
:101920004A6001684A6822F040724A6001684A6869
:1019300083681A434A6001688A6822F400628A60F8
:1019400001688A68C3681A438A60C16A6FF070626E
:10195000D14201688A6822F070628A6001688A68F0
:101960000CD0C36A1A438A6001688A6822F0405228
:101970008A6001688A68036B1A4301E022F04052D2
:101980008A6001688A6822F002028A6001688A68B7
:10199000836942EA43028A60416A002901684A6811
:1019A00015D042F400624A6001684A6822F460423D
:1019B0004A6001684B684FF46044826A94FAA4F468
:1019C000B4FA84F4521EA24013434B6002E022F4A6
:1019D00000624A600168CA6A22F47002CA62016841
:1019E000CA6A038C0E4C04EB03531A43CA620168A3
:1019F0008A6822F400728A6001688A68C36942EAD0
:101A000043228A6001688A6822F480628A600168E1
:101A10008A68406942EA8020886010BD0020014049
:101A20000000F0FF03F036BC70B515460E460446C4
:101A300008E02046641CA4B200F007F86D1E06F80A
:101A4000010BADB2002DF4D170BD10B5044603F00A
:101A5000C9FC200AA02101EB4000C0B203F092FCB7
:101A600003F000FDE0B203F08DFC03F0FBFC03F09B
:101A7000B9FCA12003F086FC03F0F4FC002003F085
:101A80004DFC044603F0CEFC204610BD70B5144654
:101A90000D46064606E02978304600F007F8761C29
:101AA000B6B26D1C641EA4B2F5D270BD70B50D4601
:101AB000044603F097FC200AA02101EB4000C0B2CD
:101AC00003F060FC03F0CEFCE0B203F05BFC03F03B
:101AD000C9FC284603F056FC03F0C4FC03F0A2FC4A
:101AE000BDE870400A200AF049B800000C4800B573
:101AF000026887B0002142F080020260006800F0B6
:101B0000800005900420CDE900010120029003200F
:101B100003906946034801F0A7FD07B000BD00002F
:101B200030380240001C0240234800B5016887B0ED
:101B300041F002010160016801F0020105910168B4
:101B400041F001010160016801F0010105910168A6
:101B500041F0040101600068032100F004000590D9
:101B60000120CDE90201019000906946134801F07F
:101B70007BFD022000906946114801F075FD32207E
:101B8000009069460F4801F06FFD0121002000F030
:101B90001BF80121084600F017F80121022000F08F
:101BA00013F80121032000F00FF80121042000F0B8
:101BB0000BF807B000BD00003038024000040240BE
:101BC000000002400008024002460D48052A16D2D5
:101BD000DFE802F003070B0E11000A460121094855
:101BE0000BE00A460221084807E00A46102104E0FB
:101BF0000A46202101E00A46022101F028BE704772
:101C0000000802400004024000000240FEE700001D
:101C10002DE9F0410D4E0025C6F88C52022006F544
:101C2000237609F0B9FF0A4F0124C7F89842022031
:101C300007F5267709F0B0FF3D60022009F0ACFF00
:101C40003460BDE8F041022009F0A6BF0000444224
:101C500000804342164810B5016886B041F080010B
:101C60000160016801F080010591016841F4807113
:101C700001600068012400F480700590402000900D
:101C80001120CDE90104032003906946094801F0C1
:101C9000EBFC082000906946074801F0E5FC074886
:101CA000C0F88C420648C0F8984206B010BD00004B
:101CB00030380240001C0240002002400000444234
:101CC0000080434270B50B480124C0F88C420220CA
:101CD00009F062FF084DC5F89842022005F5267507
:101CE00009F05AFF00202860BDE87040022009F08A
:101CF00053BF000000004442008043422DE9F047FA
:101D00000024DFF84C80134E824625460127A14669
:101D10006006040EC6F89872022009F03DFFD8F85C
:101D20000C0208B1641CE4B2C6F89892022009F0D3
:101D300033FF6D1CEDB2082DEAD3BAF1000F04D0C9
:101D4000FFF766FF2046BDE8F087FFF7BBFFF9E726
:101D500000004442008043422DE9F04700240E4E2B
:101D60000E4F0546A1464FF00108E809C6F88C025F
:101D7000022009F011FFC7F89882022009F00CFF39
:101D8000C7F898926806641C050EE4B2082CECD3E0
:101D9000C6F88C82BDE8F0870000444200804342D0
:101DA00070B50C4E0120C6F88C020B4DC5F8980298
:101DB000022005F5267506F5237609F0EDFE0024D0
:101DC0003460022009F0E8FE2C60BDE8704002207B
:101DD00009F0E2BE000044420080434270B50B4C63
:101DE0000020C4F88C02022004F5237409F0D4FE0C
:101DF00007480125C0F89852022009F0CDFE256061
:101E0000BDE87040022009F0C7BE00000000444257
:101E1000008043422DE9F0410024124E012725465F
:101E2000C6F88C72022009F0B7FE38460E4FC7F88C
:101E3000980207E0641CE4B2FA2C03D9FFF7CEFF46
:101E4000012506E0022009F0A7FED6F80C020028C2
:101E5000F0D10020C7F89802022009F09DFE284624
:101E6000BDE8F081000044420080434270B5164D49
:101E70000024286820F4404028602868286004E096
:101E8000641CE4B2012009F087FE8021284601F09D
:101E9000D9FC10B1C82CF3D30FE0C82C0DD200240C
:101EA00004E0641CE4B2012009F076FE802128469B
:101EB00001F0C8FC18B1F02C04D3012070BDF02C47
:101EC000EFD3FAE7002070BD0000024070B500F0CB
:101ED000B3F84FF4487009F051FE00F08DF8FFF7A9
:101EE000C5FFCC2000F0B6F8BE2000F0B3F800F03B
:101EF00073F8044600F070F8072805D9C043E143A1
:101F0000C0B2CCB2002500E0012504EB002000B2F5
:101F10000AF061FC9FED061B53EC112B0AF0C2FC8A
:101F20000AF0FCFB00B2002D01D1404200B270BDAE
:101F3000000000000000E43F0D4800B5016887B0D4
:101F400041F0010101600068694600F00100059060
:101F5000802000900120019002900320039005480A
:101F600001F082FB00F048F8FFF780FF07B000BDEA
:101F7000303802400000024010B5164C206820F4B2
:101F800040402060206840F4804020600022802192
:101F9000204601F05CFC022009F0FEFD01228021B8
:101FA000204601F054FC206820F440402060206866
:101FB00020600C2009F0F0FD8021204601F042FC59
:101FC00008B1012400E00024322009F0E5FD20469C
:101FD00010BD00000000024070B500250124FFF78D
:101FE000CBFFC001641C40EA5500E4B2C5B2082C26
:101FF000F5D9284670BD000010B50E4C206820F4BD
:1020000040402060206840F4804020600022802111
:10201000204601F01CFC40F2EE2009F0BDFD01223B
:102020008021204601F013FCBDE810400F2009F08C
:10203000B3BD00000000024010B5FFF7DDFFFFF761
:1020400015FFCC2000F006F8BDE81040442000F059
:1020500001B8000070B5194E0546306820F44040C4
:102060003060306840F480403060012415F0010F8A
:102070004FEA55054FF000024FF0800130460BD07B
:1020800001F0E5FB022009F087FD012280213046A6
:1020900001F0DDFB3C200AE001F0D9FB3C2009F017
:1020A0007BFD01228021304601F0D1FB022009F0A6
:1020B00073FD641CE4B2082CD8D970BD0000024046
:1020C000704700002DE9FE431D4607464819144697
:1020D000DDE90A8983B2381982B20E463846CDF856
:1020E000008003F0DDFB11494FF6FF70C1F800805E
:1020F0000F4908604846FEF79EFA103D05EBD57182
:1021000000231025CDF800904042CDE9015304EBA7
:10211000C00007EB500006EB610180B289B22B468C
:10212000224607F021FDBDE8FE8300008400002068
:10213000800000202DE9FE430E46034620499046CC
:102140002933488CC98CA0F10A0201EB50006C388D
:102150009CB285B2601F491D80B28FB2014692B217
:102160002023384609F098FC022E27D104F11800EC
:10217000144F83B205F1D80040F2FF7682B22146B7
:1021800028463E6003F0A4FA0F4942F2241008608A
:1021900040463E60FEF74FFA4042D821002210230D
:1021A000CDF8008001EBC000CDE9013205EB500015
:1021B000241D80B2A1B2D82207F0D6FCBDE8FE8370
:1021C0000000002080000020840000202DE9FE4354
:1021D0000446104442F22417DDF82880CD1882B25C
:1021E0000E46ABB22046009703F05AFB40F21D505A
:1021F0000090601D82B2ABB23146204603F050FB26
:102200000A480B49182207604AF6BE6008600021A0
:10221000CDF80080CDE901210A360F341346B1B262
:10222000A0B2C82207F0A0FCBDE8FE838400002015
:10223000800000202DE9FF4F83B08046851A1044AE
:102240000E46A1EB020B02FB02F901EB020A009021
:1022500013E0A5EB08075C467F430AE0A01B00FBE8
:102260000071494504DCA1B2A8B2069A03F0A6FAAF
:10227000641CA245F2DA00986D1CA842E9DA0B4909
:102280000698083E08600A494FF6FF701023086060
:1022900010991020CDE90001A8F10400B1B280B27C
:1022A000322206F0E8FA07B0BDE8F08F8400002083
:1022B00080000020FEB541F2820003F0FDF82B4CB7
:1022C00040F21D55009500212D23628B084603F036
:1022D000E7FA27482749002205604FF6FF7008609B
:1022E000182125A08DE807000B464FF4E1720A2162
:1022F000142007F039FC26A000904FF402752B46FD
:10230000228C2821A08CFFF761FF24A000902B468F
:10231000628C2821E08CFFF759FFA06D142807DD9F
:1023200021A1009183B2628D218D0A20FFF74EFF1B
:10233000E08C618C47F6EF3600EB51051EA0009053
:10234000A5F1410080B233461622A18DFFF772FF3E
:102350001AA000904135A8B233461622A18DFFF78E
:1023600069FFBDE8FE4009F08FB8000000000020C2
:102370008400002080000020D6C7C4DCD3E3B8D797
:10238000BCE0BFD8D6D5B6CB205633382E300000AF
:10239000CAB5CAB1BCE0BFD800000000C9E8B1B8F6
:1023A000BFD8D6C600000000CFB5CDB3D4CBD0D0B7
:1023B000C8D5D6BE000000002D0000002B00000094
:1023C00030B587B014216846FEF7D1F912480025D0
:1023D000016841F080010160016801F08001059110
:1023E000016841F0010101600068012400F0010072
:1023F00005900C20CDE9000569460294074801F0DC
:1024000033F94FF48870CDE9000569460294044819
:1024100001F02AF907B030BD30380240001C0240FC
:102420000000024070B5B3F5804F05D06FF07041E9
:1024300040F82210002070BD50F82230084C234094
:10244000D1E9004544EA05148D688E892D0245EADC
:10245000064589692C430C431C4340F82240E9E7B8
:102460000000F0CFF0B50C6850F82450194A154020
:10247000D1E90123D1E903671A433E4332434E6950
:1024800032438E693243CE6932430E6A32434E6A1A
:1024900032438E6A3243CE6A3243CE6B32430E6B86
:1024A00032434E6B32432A43082B01D142F04002A3
:1024B00040F824204A6BB2F5801F08D10A6832B177
:1024C0004FF480720A6104490268114301600020E0
:1024D000F0BD00008000E0FF00011000F0B500EB4F
:1024E000820253688E8903F04044D1E9003543EA03
:1024F00005138D682D0245EA06452B430E8A0D4DC6
:1025000005EB065633430E7D6F0107EB066633433A
:102510008E693343234353600268D20207D5426871
:10252000098A22F4700205EB015111434160002039
:10253000F0BD00000000F0FF30B5D1E901231A43DF
:10254000D1E9033423431A434B690D681A438B695D
:102550001A43D1E90734012D496A05686FF30E0566
:1025600005D01A4322430A432A43026008E023436A
:1025700029430B43416803606FF30E010A43426035
:10258000002030BD426942EA4101416100207047AC
:10259000F8B514460546D1E9000210438A686FF089
:1025A0001F03C96803EB421242EA4121084300902D
:1025B000286101F051F9064609E0601C07D024B1FA
:1025C00001F04AF9801BA04201D90320F8BDA86997
:1025D0008006F2D40020F8BDF0B56FF00F05D1E908
:1025E000003405EB04145B1E2E0123438C682F037B
:1025F00006EB04244FEA054C23430D8A8E8ACC68EF
:10260000097E4FF07F4E07EB05450CEB06560EEBAF
:102610000161012A0CD082683F1107EB0434234387
:102620002B43334302F070420B43134383600FE0AC
:10263000C2682B430B4302F070428168134301F0E0
:1026400070422103A1F5805131431143C360816081
:102650000020F0BD70B54A4888B00024016841F000
:1026600080010160016801F080010791016841F477
:1026700080710160006802A900F4807007908020DA
:10268000012581E83100032005903E4800F0ECFF71
:102690002802CDE9020502A93B4800F0E5FFFFF75B
:1026A000D9FA3A4EC6F8A042142006F5287609F069
:1026B00065FA3560322009F061FA8DF80040022297
:1026C0006946A12000F072F89DF80000302803D17F
:1026D0009DF80110032931D09DF8011001292DD05A
:1026E00002292BD00422694648F2401000F084FAF7
:1026F0008DF80440694626A0FDF7E6FD27480099BD
:1027000048F24005C0F8021002208DF800000122B6
:102710006946284600F0C2FB01226946E81D00F028
:102720006BFA0A2009F02AFA8DF800400122694666
:10273000284600F0B3FB08B0002070BDC9B201EB21
:10274000002117A0FDF7C0FD01226946002000F01E
:1027500079F901226946A42000F074F916208DF859
:10276000000001226946802000F06CF90C208DF8F1
:10277000000001226946882000F064F9DBE70000D0
:1027800030380240001C0240002002400000444259
:102790004354502049443A25730D0A00DC000020C0
:1027A0004354502049443A25780D0A002DE9F04160
:1027B00015460F460446FFF7F3FA7020FFF7CCFAF0
:1027C000FFF728FBE0B2FFF7C7FAFFF723FBFFF79D
:1027D000E7FA7120FFF7C0FAFFF71CFB00246E1E1A
:1027E00009E0B44201D0012000E00020FFF786FAA2
:1027F0003855641CE4B2AC42F3D3BDE8F041FFF7B6
:10280000EDBA00002DE9F14783B00027884D8DF81F
:1028100004704FF00A0A6878864C401CC0B2B0FBC6
:10282000FAF20AFB1201B846687009B10A286FD2A1
:102830007F4881A1801CFDF7C1FF4FF0010203A971
:1028400008B30220FFF7B2FF9DF80C0001075FD02C
:1028500000F00F01287881425AD8FF228A40D1B275
:10286000C943B4F8349041F0C001A18604EB4000A4
:10287000A1894181218CC183042009F07FF98DF861
:1028800004706E4E84E048F24E16304600F0B4F903
:102890009DF80C000106D7D5297800F00F0088427A
:1028A000D2D88DF80470012201A9304600F0F6FA62
:1028B000CAE7A18E01228240114264D05C485EA129
:1028C000801CFDF77BFF20B35D489DF804100422B7
:1028D00030F811006946FFF769FF94F844009DF84D
:1028E0000010C0079DF8010001F00F0139D000EB86
:1028F00001219DF8040004EB400001849DF80220B2
:102900009DF8031002F00F0201EB022181813AE0F1
:1029100058E04B489DF804100A30042230F81100AA
:10292000694600F069F994F844009DF80110C00769
:102930009DF8000000EB01219DF8040004EB40002D
:1029400005D081819DF802109DF8032018E00184D4
:102950009DF802109DF8032001EB02213288511AE4
:10296000D4E700EB01203188091A9DF8040004EB3C
:10297000400081819DF802209DF8031002F00F02B3
:1029800001EB022101849DF80400401C8DF8040035
:102990009DF80400297888428BD3A08931884FF0B4
:1029A0000108884203D8208C7188884209D99DF893
:1029B0000C0000F00F00012812D9E089A081608C82
:1029C00020846F701A481CA1801CFDF7F7FE0028B8
:1029D0009DF80C004FF6FF710FD0C00623D019E010
:1029E000287804EB40004189A181C08B208480209D
:1029F0008DF80C00A4F83490E4E700F08F008028F4
:102A000011D007E020F0800003E0A181218400F0D4
:102A1000E000A0866878F02801D985F801A004B00C
:102A20004046BDE8F087A08E0206EED5EAE700003A
:102A3000DC0000209400002039313100408F00205C
:102A4000D41601082DE9F04115460E46044600272C
:102A5000FFF7A6F97020FFF77FF9FFF7DBF9E0B287
:102A6000FFF77AF9FFF7D6F9002408E0305DFFF7A9
:102A700073F9FFF7CFF9070003D1641CE4B2AC424D
:102A8000F4D3FFF7ABF93846BDE8F0812DE9F04308
:102A9000464889B00024016841F080010160016866
:102AA00001F080010791016841F4807101600068C4
:102AB000802600F480700296079003AA0125032760
:102AC000DFF8EC9082E8B00002A9484600F0CCFDA7
:102AD0002802CDE9020502A9364800F0C5FDFFF73E
:102AE000B9F8DFF8D480C8F8A0420A2009F046F807
:102AF000C8F8A0520A2009F041F8CDE90264CDE9F6
:102B0000044702A9484600F0AFFD642009F036F8FA
:102B10000422694648F2401000F06EF88DF8044037
:102B2000694626A0FDF7D0FB27A16846FDF746FEC3
:102B300090B126A16846FDF741FE68B125A168461F
:102B4000FDF73CFE40B125A16846FDF737FE18B100
:102B5000012009B0BDE8F0831CA16846FDF72EFEF8
:102B600010BB02208DF8000048F2400501226946A2
:102B7000284600F093F901226946E81D00F03CF870
:102B80009DF80010602905D216A0FDF79DFB0120DD
:102B900000F05EF90A2008F0F1FF8DF800400122F4
:102BA0006946284600F07AF90020D2E73038024022
:102BB000001C0240002002400000444243545020C8
:102BC00049443A25730D0A0039313100393134371F
:102BD0000000000031313538000000003932373153
:102BE0000000000044656661756C74205665723A99
:102BF00025640D0A000000002DE9F04115460F463E
:102C00000446FFF7CDF82820FFF7A6F8FFF702F9F2
:102C1000200AFFF7A1F8FFF7FDF8E0B2FFF79CF8F4
:102C2000FFF7F8F8FFF7BCF82920FFF795F8FFF752
:102C3000F1F800246E1E09E0B44201D0012000E04A
:102C40000020FFF75BF83855641CE4B2AC42F3D3C4
:102C5000BDE8F041FFF7C2B82DE9F14F784E0024EE
:102C60004FF00A0B307882B0401CC0B2B0FBFBF2D0
:102C70000BFB1201734DA146307009B10A2876D2C0
:102C800048F24E17012202A93846FFF7B5FF9DF81A
:102C900008004FF0000801060AD500F00F000628D2
:102CA00006D28DF80480012201A9384600F0F6F81A
:102CB0009DF8080001075AD000F00F00062856D2F0
:102CC000FF218140C8B28DF80400C04395F834A0BC
:102CD00040F0C000A886A889A882288C5A4F288571
:102CE0004FF00109A98E09FA04F0014254D0574867
:102CF0000422694630F81400FFF77EFFB888A0F57B
:102D0000AA41103907D0A0F58641423919D0A0F563
:102D1000864184392CD095F84400C0072CD09DF80A
:102D200000009DF8011000EB012105EB4400018437
:102D30009DF802109DF8032001EB0221C1F54871B6
:102D40005DE095F84400C00716D19DF800009DF89D
:102D5000011000EB012105EB440001849DF80210F5
:102D60009DF8032001EB0221C1F5887147E02EE0B8
:102D700095F84400C00731D09DF800009DF801107F
:102D800000EB012105EB440081819DF802109DF8C4
:102D9000032001EB02210184641CE4B2052CA1D3C1
:102DA000A9893A884FF001092846914203D8018C3D
:102DB0007A88914209D99DF8081001F00F01012984
:102DC0001FD9C1898181418C298486F800809DF8B2
:102DD000080000F08F0080281DD029E09DF8000039
:102DE0009DF8011000EB012105EB440001849DF8E2
:102DF00002109DF8032001EB0221C1F5F0718181E1
:102E0000CAE7818A8181018D018480218DF80810B3
:102E1000A5F834A0DBE7A88E010602D520F08000DB
:102E200005E04FF6FF71A981298400F0E000A88633
:102E30003078F02801D986F800B04846BDE8FE8F0A
:102E4000E300002094000020408F0020A01701081C
:102E500008B500218DF800108DF801000E489DF88E
:102E60000020435C491C1A44C9B28DF80020B829DF
:102E7000F5D3D0B2C043401C8DF80000B8220649FB
:102E800048F2470000F00AF80222694648F2FF00C3
:102E900000F004F8002008BDE81601082DE9F04113
:102EA00015460E4604460027FEF77AFF2820FEF757
:102EB00053FFFEF7AFFF200AFEF74EFFFEF7AAFF13
:102EC000E0B2FEF749FFFEF7A5FF002408E0305D01
:102ED000FEF742FFFEF79EFF070003D1641CE4B239
:102EE000AC42F4D3FEF77AFF3846BDE8F08100002B
:102EF0002DE9F0433F4889B00024016841F080018A
:102F00000160016801F080010791016841F480715E
:102F100001600068802500F48070079001AA0126F6
:102F200003270095DFF8D09082E8D0006946484634
:102F300000F09AFB4FF48078CDE900862F4E694669
:102F4000304600F091FBFEF785FE002241463046F8
:102F500000F07DFC0A2008F011FE012241463046B7
:102F600000F075FC0A2008F009FECDE90054CDE917
:102F700002476946484600F077FB642008F0FEFDF2
:102F8000042205A948F2401000F050F88DF81840CE
:102F900005A91BA0FDF798F91DA105A8FDF70EFCDA
:102FA00018B1012009B0BDE8F08302208DF81400AB
:102FB00048F24005012205A92846FFF76FFF0122CC
:102FC00005A9E81DFFF718FE9DF81410412905D248
:102FD00011A0FDF779F9012000F030F90A2008F07E
:102FE000CDFD8DF81440012205A92846FFF756FFB4
:102FF0000020D7E730380240001C02400020024089
:103000004354502049443A25730D0A0D0A0000002C
:10301000393237310000000044656661756C7420F8
:103020005665723A25640D0A000000002DE9F04152
:1030300015460F460446FEF7B3FE2820FEF78CFE29
:10304000FEF7E8FE200AFEF787FEFEF7E3FEE0B299
:10305000FEF782FEFEF7DEFEFEF7A2FE2920FEF757
:103060007BFEFEF7D7FE00246E1E09E0B44201D0BD
:10307000012000E00020FEF741FE3855641CE4B258
:10308000AC42F3D3BDE8F041FEF7A8BE2DE9F1470D
:1030900083B000268DF80060644C4FF00A0A644D3E
:1030A00020783746401CC0B2B0FBFAF20AFB12018E
:1030B00020704FF6FF7909B10A287DD248F24E18E8
:1030C000012203A94046FFF7B1FF9DF80C0001065D
:1030D0000AD500F00F000B2806D28DF800600122FF
:1030E0006946404600F0D0F89DF80C00010775D005
:1030F00000F00F000B2871D209FA00F1C843B5F8AF
:10310000348040F0C000A886A889E883288C6886AF
:103110008DF8006047E0A88E9DF8002001219140C5
:1031200008423BD043499DF80000062231F81000C8
:1031300001A9FFF77BFF95F84400C00716D09DF862
:1031400006109DF8070001EB00209DF8001005EB2C
:10315000410108849DF804009DF8051000EB012052
:103160009DF8001005EB4101888117E09DF80600ED
:103170009DF8071000EB01209DF80010C0F5487085
:1031800005EB410188819DF804009DF8051000EBD6
:1031900001209DF8001005EB410108849DF8000016
:1031A000401C8DF800009DF800000A28B3D3224887
:1031B0000127A989028800E010E0914203D8298CF8
:1031C0004088814209D99DF80C0000F00F000128C9
:1031D0000BD9E889A881688C288426709DF80C009A
:1031E00000F08F0080280AD016E0E88BA881688E56
:1031F000288480208DF80C00A5F83480EEE7A88E96
:10320000010602D520F0800005E0A5F80C90A5F895
:10321000209000F46040A8862078F02801D984F836
:1032200000A004B03846BDE8F0870000E4000020AC
:103230009400002064180108408F002008B5002188
:103240008DF800108DF801000E489DF80020435CB9
:10325000491C1A44C9B28DF80020B829F5D3D0B260
:10326000C043401C8DF80000BA22064948F24700CE
:1032700000F00AF80222694648F2FF0000F004F864
:10328000002008BDAA1701082DE9F04115460E4699
:1032900004460027FEF784FD2820FEF75DFDFEF7BB
:1032A000B9FD200AFEF758FDFEF7B4FDE0B2FEF7C7
:1032B00053FDFEF7AFFD002408E0305DFEF74CFD46
:1032C000FEF7A8FD070003D1641CE4B2AC42F4D3BE
:1032D000FEF784FD3846BDE8F08100001FB5694661
:1032E00000900120019007200290002003900848E0
:1032F00000F074F8064800F073F90A21044800F061
:1033000038F9034800F014F904B080B210BD000091
:103310004C9000202DE9F04100250E4607462C4632
:1033200008E03846FFF7DAFF0544052008F026FCE0
:10333000641CE4B2B442F4D3B5FBF6F080B2BDE84D
:10334000F081000030B40C4601461546500700D00D
:10335000012000EBD50010FB05F0C2B208784B78D5
:10336000812809D3402B07D3FF2B05D0FF2803D09A
:103370007F2B0CD2403B0BE00023184603E05B1C84
:1033800004F8010BDBB29342F9D330BC7047413BE8
:103390008138D9B2C0B2C0EB401303EB801001EB0F
:1033A000400050430C490C2D0CD0102D0DD0182D81
:1033B0000ED0202DE9D1D1F821100144204630BC97
:1033C00008F00EB9D1F80910F7E7D1F81110F4E7B9
:1033D000D1F81910F1E70000E890002078B500243A
:1033E000009490F83C20012A19D0012280F83C205A
:1033F0000A6807250368092A13D9DE680A3A02EB2E
:1034000042029540AE43DE600A788B680A3A02EBCE
:10341000420293400268D5682B43D36010E002203B
:1034200078BD1E6902EB42029540AE431E610A78E8
:103430008B6802EB42029340026815692B431361CB
:103440004A681F25072A13D203685E6B521E02EBDF
:1034500082029540AE435E630A8893B20A79521E97
:1034600002EB820293400268556B2B43536327E0C3
:1034700003680D2A12D21E6BD21F02EB8202954006
:10348000AE431E630A8893B20A79D21F02EB82020E
:1034900093400268156B2B43136311E0DE6A0D3A0B
:1034A00002EB82029540AE43DE620A8893B20A794B
:1034B0000D3A02EB820293400268D56A2B43D36235
:1034C000174B02689A4208D10A68122A05D1D3F82C
:1034D000042342F48002C3F8042302689A421BD1F9
:1034E000104D0A68AA4201D0112A15D1D3F804233D
:1034F00042F40002C3F804230968A9420CD10A4926
:103500000A4A0968B1FBF2F101EB8101490000E0D0
:10351000491E00910029FBD180F83C40002078BD75
:1035200000200140120000105C00002040420F000B
:103530000068C06C704770B5040004D094F83D007A
:10354000002510B106E0012070BD84F83C502046F3
:1035500000F00EF8022084F83D002046FEF7C8F97E
:103560002564012084F83D0084F83C50002070BDA3
:1035700070472DE9F041044600680D4681684FF020
:10358000000749050AD58068C00507D5042084F8DE
:103590003D0084F83C700120BDE8F08100F05CF94A
:1035A00006460DE0681C0BD025B100F055F9801BD4
:1035B000A84205D9032084F83D0084F83C70EBE76D
:1035C000206800688007EDD594F83D00252804D0D8
:1035D000152084F83D000020DEE73520F9E70000E3
:1035E00008B50022009290F83C1001290ED001216C
:1035F00080F83C1090F83D10222909D0122180F863
:103600003D1001688B68DB0704D013E0022008BD81
:103610003221F4E78B6843F001038B600F49104BB4
:103620000968B1FBF3F101EB410100E0491E009193
:103630000029FBD10B4980F83C20D1F80423006815
:10364000D20601D0884207D1816811F0405F03D1D2
:10365000816841F080418160002008BD5C0000204D
:1036600040420F00002001402DE9F84FDFF8A09103
:10367000002209F1040A0AF1040B4FF00F080BF1C4
:10368000040E01260B6896403340B34271D14C685A
:10369000022C01D0122C11D1D40800EB84073D6A12
:1036A0005407E40E08FA04FC25EA0C05D1F810C012
:1036B0000CFA04FC4CEA050CC7F820C0076854005B
:1036C000032591F804C0A5400CF0030CAF430CFA9D
:1036D00004FC4CEA070CC0F800C04F68012F05D06D
:1036E000022F03D0112F01D0122F11D18768D1F8EA
:1036F0000CC0AF430CFA04FC4CEA070CC0F808C03D
:103700004768B7430E79C6F3001696403E434660BD
:10371000C668AE438D68A5403543C5604C68E4007B
:103720006FD53C4C256845F480452560246822F01F
:10373000030504F480440094374C2E19D6F8087819
:103740009407250F08FA05F4A743344CA04201D191
:1037500000242EE0324CA04201D1012429E0314C5A
:10376000A04201D1022424E02F4CA04202D1032424
:103770001FE046E02D4CA04201D1042419E02C4C5E
:10378000A04201D1052414E02A4CA04201D1062414
:103790000FE0294CA04201D107240AE0274CA042A7
:1037A00001D1082405E0264CA04201D1092400E003
:1037B0000A24AC403C43C6F80848D9F800404D46BE
:1037C0004E689C43F60300D51C432C60DAF8004099
:1037D00055464E689C43B60300D51C432C60DBF86D
:1037E00000405D464E689C43F60200D51C432C60A9
:1037F000DEF8004075464E689C43B60200D51C4377
:103800002C60521C102AFFF43CAFBDE8F88F00007A
:10381000003C0140443802400030014000000240BA
:103820000004024000080240000C02400010024068
:103830000014024000180240001C02400020024018
:10384000002402400069084000D0012070470AB1FE
:10385000816170470904FBE7014800687047000078
:103860007000002002480168491C01607047000098
:10387000700000200B4810B5016841F40071016030
:10388000016841F480610160016841F48071016068
:10389000052000F0BFF90F2000F006F800F08AF9CB
:1038A000002010BD003C024010B5044600F06CFC46
:1038B0004FF47A71B0FBF1F001F0F8FA00222146E2
:1038C000501E00F087F9002010BD2DE9F04104469C
:1038D00090F8A00015460F4601281DD0012684F857
:1038E000A060022084F8A10005EB850000EBC50074
:1038F00004EB800034223830FCF707FF2A463946B3
:10390000204605F059FA2068466284F8A16000203C
:1039100084F8A000BDE8F0810220FBE770B5040048
:1039200004D094F8A100002510B106E0012070BD7C
:1039300084F8A050204600F06FF8022084F8A1001F
:103940002068816921F070418161D4E9011001434F
:10395000D4E9030210430143206882691143816165
:10396000206882682B490A408260A08A020420688D
:103970008368A6693343134383602068C2680A40A2
:10398000C260A08B02042068C368266A33431343D5
:10399000C360206802690A400261A08C02042068AA
:1039A0000369A66A334313430361206842690A40EE
:1039B0004261A08D010420684269236B1A430A43C7
:1039C000426194F83500020294F836000104206840
:1039D000C36A03F07F43C3622068C36A94F834600B
:1039E000114333430B43C3622068416B41F0040130
:1039F00041632068416B41F00201416320688169A5
:103A000041F001018161C4F8A450012084F8A100B3
:103A1000002070BD00F800F030B5364887B00025B2
:103A2000016841F080610160006800F080600590ED
:103A300030481438016841F400010160016801F464
:103A400000010591016841F002010160016801F087
:103A500002010591016841F020010160016801F057
:103A600020010591016841F040010160016801F009
:103A700040010591016841F080010160016801F099
:103A800080010591016841F48071016000680324A0
:103A900000F480700590202000900120CDE9020400
:103AA000019069461448FFF7DFFD4FF480600090F5
:103AB0000220CDE901050E20CDE9034069460F48FB
:103AC000FFF7D2FD4FF40C60009069460C48FFF7F9
:103AD000CBFD4FF47E40009069460A48FFF7C4FDD5
:103AE00040F2F760009069460748FFF7BDFD07B058
:103AF00030BD00004438024000040240001402407F
:103B000000180240001C02400020024070B504462C
:103B100090F8A0000E46012820D0012584F8A0507E
:103B2000022084F8A10003EB830000EBC30004EB48
:103B3000800141F8386F886A3044C1E90102C86ADF
:103B40001044C8601A46204605F036F920684562E0
:103B500084F8A150002084F8A00070BD022070BD40
:103B60002DE9F041044690F8A0000F4601281FD02F
:103B7000012584F8A050022084F8A10003EB830003
:103B800000EBC30004EB80010026E1E90E6720464C
:103B9000C1E90262C1E90A721A4605F00DF920680E
:103BA000456284F8A15084F8A0600020BDE8F0814F
:103BB0000220FBE708B50020009008BD00F01F02BE
:103BC000012191404009800000F1E020C0F800117F
:103BD00070470000F0B40E4B1B68C3F30223C3F11F
:103BE0000704042C00D904241D1D072D01D2002335
:103BF00000E0DB1E012606FA04F56D1E0D409D4017
:103C00009E40761E164045EA0601F0BC05F086BAD5
:103C10000CED00E0064A00F0070110684FF6FF03C4
:103C2000184040EA01200349084310607047000033
:103C30000CED00E00000FA052DE9F8431D4801688D
:103C400041F0805101600068012700F08050009031
:103C5000380490FAA0F0DFF86080B0FA80F048F8FD
:103C60002070FFF7F9FD04464FF47A75134E04E017
:103C7000FFF7F2FD001BA84213D87068C003F7D508
:103C80004FF4003090FAA0F0B0FA80F048F82070BD
:103C9000FFF7E2FD044607E0FFF7DEFD001BA84248
:103CA00002D90320BDE8F88370688003F4D50020B2
:103CB000F8E700004038024000000E42007000406B
:103CC0000120010291FAA1F1024AB1FA81F142F810
:103CD0002100704700000E422DE9F84F04460068AD
:103CE000DFF878829E4DC10747F6C07A4FF0E04674
:103CF0004FF0010B4FF0000901D180074BD59949D6
:103D0000C1F86890FFF7A8FD074604E0FFF7A4FD9F
:103D1000C01B64287ED828680001F7D42078924917
:103D2000C0070DD09AFAAAF26068B2FA82F2904007
:103D300096FAA6F3A268B3FA83F39A401043086098
:103D40002078800718D5086896FAA6F200F0E040BF
:103D5000B2FA82F2D0406268237B920142EA0362A7
:103D600042EA00700860D8F80010E26921F01F01F3
:103D7000521E1143C8F800107A49C1F868B0FFF725
:103D80006BFD074604E0FFF767FDC01B642841D8C0
:103D900028680001F7D52068410701D4000776D5CF
:103DA0007049C1F87090FFF757FD074604E0FFF730
:103DB00053FDC01B64282DD82868C0438000F6D569
:103DC00020786A4F40074FF0706C29D5386896FA12
:103DD000A6F100F0E040B1FA81F1C8409AFAAAF2E7
:103DE0002169B2FA82F291409CFAACF36269B3FAAB
:103DF00083F39A40114396FAA6F2B2FA82F2904007
:103E000001433960D8F800106FF0FF0321F4F85136
:103E1000226A00E079E003EB02221143C8F80010A7
:103E20002078000723D538689CFAACF100F0706068
:103E3000B1FA81F1C8409AFAAAF22169B2FA82F283
:103E400091409CFAACF2B2FA82F29040014396FAA9
:103E5000A6F2A069B2FA82F2904001433960D8F824
:103E60000010626A21F440311143C8F800103D4946
:103E7000C1F870B0FFF7F0FC064604E0FFF7ECFC79
:103E8000801B642841D82868C0438000F6D420787D
:103E9000800651D532484F464030016841F080518C
:103EA00001600068324E00F080500090306840F4AD
:103EB00080703060FFF7D0FC054604E0FFF7CCFCD3
:103EC000401B642821D83068C005F7D5264E143E23
:103ED0003068218D00F4407001F4407188422BD08D
:103EE0003068244920F44070C1F800B00F603060A1
:103EF000800710D5FFF7B0FC054641F2883707E090
:103F0000FFF7AAFC401BB84202D90320BDE8F88F96
:103F100030688007F4D5A06A1149C0F30122083146
:103F2000032A13D0086820F4F81008603068218D47
:103F3000C1F30B01084330602078C00604D50E4958
:103F400094F82C00C1F8E0010020DFE70A680B4B71
:103F500022F4F812184002430A60E7E78C38024066
:103F6000003802400000474284380240883802404E
:103F700000700040400E474200104742FFFCFF0F18
:103F80002DE9F05FDFF8F8A104460F46DAF80000EB
:103F9000DFF8F08100F00F02C8B27A49814641F2A1
:103FA000883608F10808BA4261D202468AF8002031
:103FB000DAF8000000F00F00B8427DD120788007C9
:103FC00007D5D8F80020A36822F0F0021A43C8F8F9
:103FD00000202078C0072DD0606801281AD0022860
:103FE0001BD0032819D009688907002964DAD8F89A
:103FF0000010474621F003010143C8F80010FFF705
:104000002BFC0546606801280FD0022818D0032831
:104010001CD027E009688903E7E709688901E4E71C
:10402000FFF71AFC401BB04258D83868C0F3810033
:104030000128F5D188E0FFF70FFC401BB0424DD8B6
:104040003868C0F381000228F5D17DE03868FFF7B9
:1040500003FC401BB042F9D940E0FFF7FDFB401BD9
:10406000B0423BD8386810F00C0FF6D16CE02078E5
:10407000800707D5D8F80020A36822F0F0021A4381
:10408000C8F800202078C0074CD06068012828D0EC
:10409000022829D0032827D009688907002949DA8E
:1040A000D8F8002022F003020243C8F80020FFF7EE
:1040B000D3FB0546606800E03CE001281DD00228E3
:1040C00029D0032838D0B3464646306810F00C0F8C
:1040D00028D0FFF7C1FB411B5945F6D90320BDE8A5
:1040E000F09F09688903D9E709688901D6E7FFF7D6
:1040F000B3FB411B594502D9F0E7B3464646306849
:10410000C0F381000128F2D10CE0FFF7A5FB411BB1
:10411000594502D9E2E7B34646463068C0F381000C
:104120000228F2D18AF80090DAF8000000F00F00BF
:10413000B84209D00120D2E744462068FFF78CFB43
:10414000401BB042F9D9C9E72078400707D5D8F815
:104150000010E26821F4E0511143C8F80010207803
:10416000000708D5D8F80010226921F4604141EA1F
:10417000C201C8F800100F20FFF796FB0020AEE741
:10418000003C02400038024010B500F043F80849F6
:104190000968F02292FAA2F201F0F001B2FA82F27A
:1041A000D140044A515CC8400349086010BD00007A
:1041B0000838024080CF00085C00002010B5FFF7EF
:1041C000E3FF074909684FF4E05292FAA2F201F4C2
:1041D000E051B2FA82F2D140024A515CC84010BDAF
:1041E0000838024080CF000810B5FFF7CDFF07491F
:1041F00009684FF4604292FAA2F201F46041B2FA07
:1042000082F2D140024A515CC84010BD08380240D9
:1042100080CF000830B51948006810F00C0118482C
:1042200012D0184C04290ED008290DD1134A121FA0
:104230001168136801F03F015D0247F6C07304D5B1
:10424000B4FBF1F003E0204630BDB0FBF1F01168A3
:10425000194093FAA3F3B3FA83F3D94048431168A2
:104260004FF4403292FAA2F201F44031B2FA82F2F3
:10427000D140491C4900B0FBF1F030BD0838024084
:104280000024F40040787D012DE9F84F04460078C1
:10429000DFF8FCA2BF4DC0074FF0000648D0DAF8A7
:1042A00000105046C1F38101012908D00068C0F315
:1042B000810002280AD1281D0068400206D528681E
:1042C000800335D56068002873D031E0DFF8C492F0
:1042D00009F1020989F80060FFF7BEFA074641F2CA
:1042E000883804E0FFF7B8FAC11B41457AD828683E
:1042F0008003F7D4207989F80000606860B1FFF787
:10430000ABFA074604E0FFF7A7FAC11B4145EDD819
:1043100028688003F7D50BE0FFF79EFA074604E014
:10432000FFF79AFAC11B4145E0D828688003F7D40B
:104330002078DFF86492800744D5DAF80010504600
:1043400011F00C0F4FF0F80809D00068C0F381009D
:1043500002280BD18E48001F0068400206D428684E
:10436000800714D5E068012823D110E0E068D0B1BF
:104370000120C9F80000FFF76FFA074604E0FFF7D5
:104380006BFAC01B6428B1D828688007F7D5286865
:1043900098FAA8F22169B2FA82F220F0F80091406E
:1043A000084328600EE0C9F80060FFF755FA074699
:1043B00005E0EAE0FFF750FAC01B642812D828682D
:1043C0008007F7D42078000725D5DFF8C48173482B
:1043D000616908F16C0881B101210160FFF73CFAC5
:1043E000074605E07EE0FFF737FAC01B642879D85E
:1043F000D8F800008007F6D50DE00660FFF72CFA2C
:10440000074604E0FFF728FAC01B64286AD8D8F8EA
:1044100000008007F6D42078400753D55C48383038
:10442000016841F0805101600068DFF8748100F09C
:1044300080500090D8F8001041F48071C8F8001046
:10444000FFF70AFA074604E0FFF706FAC01B6428E4
:1044500048D8D8F80000C005F6D5DFF834B10BF124
:10446000680B8BF80060FFF7F7F9074641F28838D0
:1044700004E0FFF7F1F9C11B41457ED8DBF80000ED
:104480008007F6D4207A8BF80000A06868B1FFF7A7
:10449000E3F9074604E0FFF7DFF9C11B41456CD89B
:1044A000DBF800008007F6D50CE0FFF7D5F90746EA
:1044B00004E0FFF7D1F9C11B41455ED8DBF80000ED
:1044C0008007F6D4A069E8B3DAF80010C1F38101DF
:1044D00002295AD0022806D0C9F86060FFF7BCF95B
:1044E00004464DE049E04F46C9F86060FFF7B4F973
:1044F000064604E0FFF7B0F9801B64283DD8286821
:104500008001F7D4D4E90701084347F6C07191FA56
:10451000A1F1626AB1FA81F18A40A16A4FF0FF33DA
:1045200003EB51014FF4403393FAA3F3B3FA83F34F
:1045300099400A4310434FF0706292FAA2F2B2FA25
:1045400082F200E01FE0E16A914008431049091F30
:10455000086001203866FFF77FF9044604E0FFF7A2
:104560007BF9001B642808D828688001F7D50AE089
:10457000FFF772F9001B642802D90320BDE8F88F09
:1045800028688001F4D40020F8E70120F6E7000055
:10459000083802400038024000004742800E47427F
:1045A0000070004010B500680B4641680D4801409E
:1045B000080CD870C1F304245C7001F03F049C70B7
:1045C000C1F34231197052B904F031FFD8705878F4
:1045D00004F02DFF5870987804F029FF987000209F
:1045E00010BD00003FFFFF0010B50B460168896A4F
:1045F000596001680969C1F30E019960006801689A
:104600000E480140C1F305401870C1F306245C70E8
:1046100001F07F049C70402404EA1141D97052B922
:1046200004F005FF1870587804F001FF587098786E
:1046300004F0FDFE9870002010BD00007F7F7F0019
:1046400070B5040002D0607F10B106E0012070BD9B
:1046500000202077204600F041F802206077216892
:10466000CA204862216853204862204604F0F3FEC5
:10467000FF210028206803D0416204206077E5E72D
:104680008268154B1A4082602068826863681A430A
:10469000D4E904352B431A4382602268E068106134
:1046A00020680269238942EA034202612068C268E5
:1046B00022F08002C2602068026C22F48022026430
:1046C0002068026CA3691A430264206841620120D9
:1046D0006077002070BD0000BFFF8FFF70470000B3
:1046E0002DE9F0470446007F0B46012825D04FF006
:1046F000010984F81C9002206077587802B304F016
:1047000096FE987804F093FE9878D97840EA0145AF
:1047100058781978000240EA413005432168CA20E0
:104720004862216853204862204604F094FE002627
:10473000FF274FF0040858BB19E00220BDE8F087BE
:10474000C10603D500F0EF000A305870D87804F0A5
:1047500077FE0204587804F073FE42EA002298784B
:1047600004F06EFE0243187842EA4035D6E70F485F
:104770000540206845602068C16821F08001C16063
:104780002068806880060AD4204600F089F830B19D
:104790002068476284F81D8026770120CEE72068D4
:1047A000476284F81D9026770020C7E73FFFFF008F
:1047B0002DE9F0470446007F0D46012811D04FF047
:1047C000010A84F81CA00220607720680026806817
:1047D0004FEA406042B100281ADA287804F027FE38
:1047E00017E00220BDE8F087002800DBEE70287893
:1047F00004F026FE0204687804F022FE42EA002259
:10480000A87804F01DFE0243E87842EA00470AE077
:10481000EE70A878297840EA01476878E9780002C4
:1048200040EA014007432168CA20486221685320BA
:104830004862204604F00FFE4FF0FF084FF00409D5
:10484000E0B916480740206807602068816821F4B5
:1048500080218160D5E903100143206882681143FB
:1048600081602068C16821F08001C1602068806893
:1048700080060BD4204600F013F838B12168C1F847
:10488000248084F81D9026770120ABE72168C1F8C9
:10489000248084F81DA026770020A3E77F7F7F0077
:1048A00070B505460068C16821F0A001C160FEF73F
:1048B000D3FF04464FF47A7606E0FEF7CDFF001BE7
:1048C000B04201D9032070BD2868C0688006F4D5C5
:1048D000002070BD70B50D46040003D094F82C0084
:1048E00010B107E0012070BD002084F82D002046A3
:1048F00000F012F8022084F82C00211D2068FDF73A
:104900001BFED4E900022946FDF766FE012084F86B
:104910002C00002070BD0000304800B5016887B051
:1049200041F001010160006800F0010005902B4892
:104930000838016841F004010160016801F00401D8
:104940000591016841F008010160016801F008016A
:104950000591016841F010010160016801F010014A
:104960000591016841F020010160016801F020011A
:104970000591016841F0400101600068694600F05E
:10498000400005900D20009002200190012002902F
:10499000032003900C2004901148FEF765FE4CF2B2
:1049A0000370009069460F48FEF75EFE4FF6837075
:1049B000009069460C48FEF757FE4FF63F00009006
:1049C00069460A48FEF750FE48F2371000906946E3
:1049D0000748FEF749FE07B000BD00003838024026
:1049E00000080240000C0240001002400014024087
:1049F0000018024010B5044690F82C00022809D097
:104A0000022084F82C002068FDF7BCFD012084F80A
:104A10002C00002010BD70B5044690F82C000D4607
:104A200002280CD0022084F82C002068FDF7B0FD8D
:104A30002868022804D0012084F82C00002070BDD2
:104A40000520F9E770B5040004D094F85100002562
:104A500010B106E0012070BD84F85050204600F0EF
:104A600033F8022084F851002068016821F04001E9
:104A70000160D4E901010843D4E90312114308435A
:104A800061690843218B01F400710843E16908431F
:104A9000216A0843A16A084321680860A0690421CB
:104AA00001EA1040616A0843216848602168E06AB1
:104AB00008612068C16921F40061C1616565012058
:104AC00084F85100002070BD124800B5016887B01D
:104AD00041F020010160006800F0200005900D48C1
:104AE0001430016841F4801101600068012100F474
:104AF000801005904FF4607000900220CDE9010114
:104B000003900520049069460348FEF7ADFD07B009
:104B100000BD000030380240001402402DE9F84387
:104B2000044690F85100DDF82080012801D02228A9
:104B30007ED169B162B15BB194F85000012877D0A1
:104B4000012784F8507094F85100012803D005E043
:104B50000120BDE8F883322084F851000026666504
:104B6000A263A387E3872163A386E386A664E66442
:104B7000A06A4FF40055A84209D12068016821F4C9
:104B8000005101602068016841F400510160206813
:104B90000168490603D4016841F040010160E06802
:104BA0004FF48271B0F5006F606807D0002867D0BD
:104BB00088426ED1E08E012862D06AE020B188423E
:104BC0000CD1E08E012809D1206B21680088C860D3
:104BD000206B801C2063E08E401EE086E08E80B952
:104BE000A06AA84244D12068016841F48051016064
:104BF0003EE02068C068A16B0880A06B801CA063A9
:104C00009EE0434600220221204604F019FE0028BF
:104C100074D1206B21680088C860206B801C2063E1
:104C2000E08E401E0004000CE08609D1A06A00E07E
:104C3000C7E0A84204D12068016841F480510160B6
:104C4000434600220121204604F0FAFD00286FD1DE
:104C50002068C068A16B0880A06B801CA063E08FF7
:104C6000401EE087E08E0028CBD1606800286AD122
:104C7000434600220121204604F0E2FDF0BBB8E7E4
:104C8000206B411C216321680078C860E08E401EC3
:104C9000E086E08E98B9A06AA84204D12068016835
:104CA00041F480510160434600220121204604F076
:104CB000C7FD18BB2068C068A16B087040E0434680
:104CC00000220221204604F0BBFDB8B9206B411C34
:104CD000216321680078C860E08E401E0004000C4B
:104CE000E08607D1A06AA84204D12068016841F497
:104CF0008051016000224346012100E018E0204677
:104D000004F09EFDA0B92068C168A06B421CA2639C
:104D10000170E08F401EE087E08E0028CFD16068F0
:104D200088B9434600220121204604F089FD08B1DC
:104D300003200EE72068C168A06B421CA2630170CB
:104D4000E08F401EE087A06AA84210D143460022AF
:104D50000121204604F074FD18B1606D40F002009E
:104D60000FE02068C068ADF80000BDF800004346C1
:104D700001228021204604F063FD20B1606D40F0E7
:104D800020006065D4E784F8517020688168A26AC9
:104D9000C1F30011AA4210D179B1616D41F0020155
:104DA0006165016821F4005101602068016841F4E7
:104DB0000051016084F85060CAE684F85060002019
:104DC000C7E60220C5E670B515460E46040003D0BE
:104DD00094F8490010B107E0012070BD002084F86C
:104DE0004800204600F01AF804F108012068FDF799
:104DF00039FB3146A2682068FDF770FBD4E9010257
:104E00002946236BFDF70EFBA168206850F821208E
:104E100042F0010240F82120002070BD1A4800B580
:104E2000016887B041F001010160006800F00100F5
:104E3000059015480838016841F0080101600168D3
:104E400001F008010591016841F01001016000685E
:104E5000694600F0100005904EF2B37000900220F9
:104E6000019001200290032003900C200490074839
:104E7000FEF7FAFB4FF68070009069460448FEF793
:104E8000F3FB07B000BD000038380240000C0240C0
:104E9000001002404FF0E0210428086903D020F000
:104EA00004000861704740F00400FAE710B5401EA6
:104EB000B0F1807F01D3012010BD4FF0E02460618C
:104EC0000F21601704F02AF90020A061072020615B
:104ED000002010BD704738B5016804460868CA68EC
:104EE000C0F3000002F4807238B132B1086848683B
:104EF0000090E06B40F00100E06308684A69C0F38D
:104F0000400002F0010238B132B1086848680090F0
:104F1000E06B40F00400E06308684A69C0F3800079
:104F200002F0010238B132B1086848680090E06BC5
:104F300040F00200E06308684A69C0F3C00002F074
:104F4000010238B132B1086848680090E06B40F067
:104F50000800E0630868C968C0F3401001F0200150
:104F600018B111B1204605F0D1FC20680168C06875
:104F7000C1F3C01100F0800019B110B1204605F056
:104F8000D3FD21680868CA68C0F3801002F04002AF
:104F9000012568B162B1CA68204622F04002CA60A9
:104FA00094F8391032290CD080F8395000F050F9BB
:104FB000E06B002804D084F839502046FFF78AFFC0
:104FC00038BD222180F83910F0E770B5040004D014
:104FD00094F83900002510B106E0012070BD84F876
:104FE0003850204600F020F8022084F8390020686C
:104FF000C16821F40051C160204605F0DBFC206847
:10500000016921F4904101612068416921F02A0180
:1050100041612068C16841F40051C160E56301202D
:1050200084F83900002070BD30B50446006820497E
:1050300087B0884239D11F48016841F00101016001
:10504000006800F0010005901A481430016841F032
:10505000100101600068012100F0100005904FF47C
:10506000007000900220CDE9010103900720124D4D
:10507000049069462846FEF7F7FA2815009069461D
:105080002846FEF7F1FA2068C16821F04001C160AE
:105090002068C16841F02001C1602520FEF78EFD27
:1050A000032211462520FEF795FD07B030BD000014
:1050B0000010014030380240000002402DE9F04766
:1050C000044690F8390099460D46012801D012286F
:1050D00057D125B31AB394F83800012851D00126CE
:1050E00084F838600027E76394F83900122819D053
:1050F000222084F83900A285E2854FF48058E08DA3
:105100004B46401EE085A0684FF0000240454FF03E
:105110002001204616D105F03AFDB0B904E0012087
:10512000BDE8F0873220E4E7206900282068406865
:1051300003D0C1B225F8011B12E0C0F3080125F825
:10514000021B0DE005F023FD08B10320E8E720690C
:1051500000282068406801D000F07F0005F8010BAE
:10516000E08D0028CBD194F83900322805D084F89E
:10517000396084F838700020D2E7122084F83900B2
:10518000F7E70220CCE770472DE9F047044690F896
:10519000390099460D46012801D0222856D125B361
:1051A0001AB394F83800012850D0012684F83860EA
:1051B0000027E76394F83900222819D0122084F8D8
:1051C0003900A284E2844FF48058E08C4B46401EA4
:1051D000E084A0684FF0000240454FF08001204677
:1051E00013D105F0D4FC08BB04E00120BDE8F08732
:1051F0003220E4E728882168C0F30800486020696D
:1052000008B16D1C08E0AD1C06E005F0C0FC68B9F3
:10521000216815F8010B4860E08C0028D5D14B4679
:1052200000224021204605F0B2FC08B10320DDE752
:1052300094F83900322805D084F8396084F8387041
:105240000020D3E7222084F83900F7E70220CDE7D9
:105250007047FEE770B50D4C0025C4F890520C481D
:10526000016821F440610160016841F480610160DE
:10527000C4F89452022004F5247406F08DFC012039
:105280002060022006F088FC256070BD008043424B
:10529000001C02400E4810B5016886B041F0800144
:1052A00001600068012400F0800005903020CDE905
:1052B00000040220CDE9024069460648FEF7D4F911
:1052C0000548C0F89442C0F8904206B010BD0000F6
:1052D00030380240001C02400080434270B50D4C43
:1052E0000026C4F890620C48016821F44061016016
:1052F000016841F4806101600125C4F894520220E4
:1053000004F5247406F048FC2560022006F044FCF5
:10531000266070BD00804342001C02402DE9F0472A
:10532000814616480024016821F44061016001684B
:105330000160134E254627464FF00108C6F89072CB
:10534000022006F029FCC6F890826006040ED6F80A
:10535000140208B1641CE4B2012006F01DFC6D1CAF
:10536000EDB2082DEAD3B9F1000F04D0FFF772FFB8
:105370002046BDE8F087FFF7B1FFF9E7001C0240C7
:10538000008043422DE9F04105461448016821F4AC
:1053900040610160016841F480610160104E0027A6
:1053A000C6F890723C464FF00108E809C6F894022E
:1053B0006806050E022006F0EFFBC6F89082022078
:1053C00006F0EAFBC6F89072022006F0E5FB641CCA
:1053D000E4B2082CE9D3BDE8F0810000001C0240D3
:1053E0000080434270B50D48016821F440610160BE
:1053F000016841F480610160094C0120C4F8940205
:10540000C4F89002042004F5247406F0C5FB0025BE
:105410006560042006F0C0FB256070BD001C0240E2
:105420000080434270B50D48016821F4406101607D
:10543000016841F480610160094C0020C4F89002C9
:10544000C4F89402042004F5247406F0A5FB012599
:105450002560042006F0A0FB656070BD001C0240C2
:105460000080434270B512480024016821F4406175
:105470000160016801600F4D0126C5F89462304655
:1054800006F08AFBC5F89062012006F085FB07E074
:10549000641CE4B2FA2C03D9FFF7C4FF012070BDED
:1054A000D5F814020028F3D1C5F8900270BD0000B1
:1054B000001C02400080434270B50E490E4A064669
:1054C00008881268002422B13046BDE8704003F01D
:1054D00027BA4D8800214543084603F0ABF803F096
:1054E0000DFAB1B2054801E00180641CAC42FBD367
:1054F00070BD0000408F00202C900020000008604C
:105500002DE9F05F3E4C3F4DA071296839B103F0A1
:1055100027FAE88A2080288B6080BDE8F09F384910
:105520002C252B2689884FF0F00845F210594FF4AE
:10553000305A4FF4285B4FF42C5E2A274FF44873FF
:105540004FF4A07C4FF4F07260B1A4F800C0A4F84E
:105550000280494532D1A4F808A0A4F80AB0A4F802
:105560000CE042E0A4F80080A4F802C0494506D14E
:10557000A4F808A0A4F80AB0A4F80CE011E0A1F582
:10558000C850633825810AD06781A681A1F5A6405D
:10559000103809D0A1F5EE40963805D007E06681B5
:1055A000A78122806380F1E7A4F800C06280A1F5A2
:1055B000184006381FD1228063801CE0A1F5C85036
:1055C00063380FD0A1F5184006380BD025816781CC
:1055D000A681A1F5A64010380AD0A1F5EE40963874
:1055E00006D008E025816781A68123806280F0E7EC
:1055F0002280A4F802C0BDE8F05F002002F048BF9E
:10560000408F00202C9000202DE9FE4F0026A2EBB9
:10561000000882465F1A701E35468946B8F1000FB1
:1056200002DD4FF0010102E003D14FF000010191D2
:1056300002E0C8F100080190002F02DD4FF00100E8
:1056400002E003D14FF00000009002E0C7F1000734
:1056500000904046B84501DD044600E03C46601C31
:105660004FF0000B029015E01FFA89F11FFA8AF043
:1056700000F016F846443D44A64202DD0199361B6F
:105680008A44A54202DD00992D1B89440BF10100DB
:105690001FFA80FB02998B45E6DDBDE8FE8F000016
:1056A00010B5084A084C126822B12268BDE81040C3
:1056B00003F06AB902F0BEFF03F020F90349208825
:1056C000088010BD2C9000208000002000000860A1
:1056D0002DE9F0411C4615460E4607460B46FFF7DE
:1056E00093FF3A46234631461046FFF78DFF234687
:1056F0002A4619463846FFF787FF2A462346314691
:10570000BDE8F0411046FFF77FBF2DE9FC5F804602
:105710000024154603200F46A0EB450649E0781B00
:1057200081B208EB040A01901FFA8AF0FFF7B8FF74
:10573000381B81B208EB050900901FFA89F0FFF7CA
:10574000AFFF07EB040B1FFA8BF11FFA89F0FFF78D
:10575000A7FF07EB05091FFA89F11FFA8AF0FFF787
:105760009FFFA8EB040A1FFA89F11FFA8AF0FFF7DE
:1057700097FFA8EB05091FFA8BF11FFA89F0FFF7D5
:105780008FFF019881B21FFA8AF0FFF789FF009816
:1057900081B21FFA89F0FFF783FF641C002E03DA41
:1057A00006EB8406B61D04E0601B06EB80066D1E4A
:1057B0000A36AC42B3DDBDE8FC9F00002DE9F041A4
:1057C000044634480D46006820B12046BDE8F0414B
:1057D00003F0DAB8304E270A3046B1884089A1F587
:1057E000AA434FEA1528103B0FD0A1F5C853633BDD
:1057F00024D003F077F8384603F068F8E0B203F0FD
:1058000065F8B08903F06EF836E003F06BF83846BF
:1058100003F05CF87089401C80B203F063F8E0B2DA
:1058200003F054F8B08903F05DF8404603F04EF8F9
:10583000B089401C80B203F055F820E0B17919B965
:105840003188091B491E8CB203F04CF8270A3846F0
:1058500003F03CF8E0B203F039F8384603F036F8CC
:10586000E0B203F033F8B08903F03CF8404603F0AF
:105870002DF8E8B203F02AF8404603F027F8E8B222
:1058800003F024F8054930890880881C0280BDE8AF
:10589000F08100002C900020408F0020FEFF076068
:1058A0002DE9F8431F46144B804608981B6833B116
:1058B00000903B46404603F085F8BDE8F883A2EB34
:1058C0000802521C96B20C4685B2DFF830900FE009
:1058D0002146404602F0AEFE03F010F80020494693
:1058E00002E00D80401C80B2B042FAD3641CA4B226
:1058F000BC42EDD9E1E700002C90002000000860D8
:105900002DE9F04F95B003F0FBF9F84C47F289759B
:1059100045F21036A08045F2105947F2967849F6C4
:10592000060A41F6631B18B103F0A6F802F03BBD6E
:10593000EF480027016841F002010160006810A9EA
:1059400000F0020000902020109001201190129091
:1059500003201390E748FDF787FEE4484FF020410D
:10596000503802AA0160E449C0E901171021C7605C
:10597000C0E9047187610902C761C0E90971890042
:10598000C0E90B7189014763C0E90E7146210B9193
:105990000F20CDE90907CDE902070490D3480F97FE
:1059A00009A908975038FFF70EFA322006F0E6F8FA
:1059B000D32002F097FF02F039FDA08002F036FDFF
:1059C000A08002F033FD4FF6FF7707EA0020A080A9
:1059D00002F02CFDA1880843A0F51341A0804139B5
:1059E0007DD0042002F07EFF02F020FDA08002F0B6
:1059F0001DFDA08002F01AFD07EA0020A08002F041
:105A000015FDA1880843A0F50541A080523967D053
:105A1000A84264D0D42002F065FF02F007FDA08008
:105A200002F004FDA08002F001FD07EA0020A08042
:105A300002F0FCFCA1880843A080B04276D0D320BD
:105A400002F050FF02F0F2FCA08002F0EFFCA08018
:105A500002F0ECFC07EA0020A08002F0E7FCA1883D
:105A60000843A080404561D055214FF4704002F0BA
:105A70004FFFAA214FF2010002F04AFF52214FF2DC
:105A8000020002F045FF08214FF2030002F040FF40
:105A900001214FF2040002F03BFF4FF4454002F0B9
:105AA00021FF02F0C3FC07EA0020A0804CF2015065
:105AB00002F018FF02F0BAFCA1880843A08005207C
:105AC00006F05CF8A188494530D0D32002F00AFFE7
:105AD00002F0ACFCA08002F0A9FCA08001E020E074
